:020000002029B5
:10000800C300030EC4000B1913280C184D288C18B4
:1000180073280E28440E8300C30E430E0900C23015
:1000280081000B11A00B1B28FA30A000B20A2B1F6D
:100038002628A60B2628FA30A600A70B26282B135D
:100048003C30A700AB1E30288914A403031D3028B8
:100058007D30A4008910AB12A30B3B283F30A300CE
:100068002B08EF39C2002B0910394207AB00A10B4E
:100078000E2809082B1F0B392B1B0939C200090947
:100088002B1F04392B1B0639420789003F30A1007A
:100098000E280B308F00DC308E000C10A203031DDD
:1000A8000E280230A2001010AB102B11AB162D1821
:1000B8006128AD1867282D196E283508B300360851
:1000C800B400B2010E283B08B7003D08B9003C084F
:1000D800B8000E2812154008BE004108BF008C1059
:1000E800A50B0E283230A500BE0B832800303F0236
:1000F800031D83282B1712119101BE010E28FF3012
:0C0108003E02031D0E285930BE00BF034C
:1001A0008A010F3982073F3406345B344F3466349A
:1001B0006D347D3407347F34673477347C3439349C
:0601C0005E347934713455
:1001D0008A01AB183C08AB1C38080F3982070000B5
:1001E00032342934323431343234313432343234EA
:0801F000313432343134323471
:10024000212103178316880189010313FF308600DB
:1002500085018901870188010330810003308C000A
:100260007D309200E0308B008312603090004A3085
:100270009200880187018901C23081000B308F0014
:10028000DC308E003F30A100FA30A000B201B30193
:10029000B401AB01BF01BE01FF30AE00AF000230C0
:1002A000A2000130AA00AD00B900B700B8007D304F
:1002B000A4003230A50085003C30A700FA30A6002B
:1002C0003C303202031941222B1829221219222212
:1002D000003EAA1D6E29AA01FF30013EAA0D2E087C
:1002E000AF00AB230608AE00AF1A7829AE1AAB14E4
:1002F000AB1886292F1986292E1D86292D1D8329A5
:100300000130AD0086290030003EAD0D2D0885007E
:100310002D188F29AD189F292D19AF296029AB1CE5
:10032000922998293308B0003408B100C921602906
:1003300057223508B0003608B100E3216029AB1C14
:10034000A229A8293908B1003708B000C9216029BD
:10035000AC223B08B0003D08B100E3216029AB1C92
:10036000B229C229AF18BC29AE1CBC292B13891095
:10037000FA30A6003C30A7003E08B0003F08B100AC
:10038000C92160290F234008B0004108B100E321D2
:100390006029AA18D3292A19D729AA19DB293008D4
:1003A0000F39D020DE29300E0F39D020DE29310858
:1003B0000F39D020DE29310E0F39D0208801870077
:1003C0002A08880008000030AA18F2292A19FA29F8
:1003D000AA19022A2B1EEE292B1D092A30080F39D3
:1003E000D020092A2B1EF6292B1D092A300E0F3981
:1003F000D020092A2B1EFE292B19092A31080F3972
:10040000D020092A2B1E062A2B19092A310E0F3952
:10041000D020880187002A0888000800AC10000856
:100420000F390A3C031D0800AC1406308007080091
:100430002C1000080F390F3C031D08002C14063047
:10044000800208003E30840018223F3084001822C9
:1004500008002B10B90A393084000E22E820390236
:10046000031D08000130B900B80AB70A373084000C
:100470000E220D303802031D08000130B800B7000D
:100480000800B30AB201333084000E226030330218
:10049000031D0800B301B40A24303402031D532A9B
:1004A000B4012B140800343084000E220800AB196C
:1004B000642AAB153408B60010143308B5002E08B2
:1004C000AF00AB230608AE0009158D2393239923B3
:1004D0002C1E6F2A2B1D6E2A2B116F2A2B152B1900
:1004E000882A2C1D7D2AB503FF303502031D7A2A88
:1004F0005930B500353084001822AC1D9E2AB50A4B
:10050000353084000E22603035020319B5019E2A71
:100510002C1D942AB603FF303602031D912A233086
:10052000B600363084001822AC1D9E2AB60A36303A
:1005300084000E22243036020319B6019F23AC1E1C
:100540000800AB112B11AB100B308F00DC308E008C
:100550000230A20010100800AB19BB2AAB153908F5
:10056000BD0010143708BB003808BC002E08AF00CF
:10057000AB230608AE0009158D23932399232C1E67
:10058000C62A2B1DC52A2B11C62A2B15E820BA0016
:100590003A083D02031CCE2A3A03BD002B1DE72A70
:1005A000D12A2C1DDA2ABD0BD72A3A03BD003D30D3
:1005B00084001822AC1D012BBD0A3D3084000E22A0
:1005C0003A083D02031D012B0130BD00012B2C1DFB
:1005D000F32ABB03BC0BF02A0C30BC001230BB006A
:1005E0003B3084001822AC1D012BBB0ABC0A0D3025
:1005F0003C02031DFE2A0130BC00BB003B308400DE
:100600000E229F23AC1E0800AB112B11AB100B3038
:100610008F00DC308E000230A20010100800AB19F1
:10062000272BAB153E08003C031D1D2B3F08003C4B
:10063000031D1D2B0130C0001F2B3E08C0001014ED
:100640003F08C1002E08AF00AB230608AE00091515
:100650008D23932399232C1E322B2B1D312B2B11F1
:10066000322B2B152B195F2B2C1D4A2BC003410855
:10067000003C031D412B4008003C031D412B593019
:10068000C000FF304002031D472B5930C0004030EE
:1006900084001822AC1D7F2BC00A4108003C031DBA
:1006A000572B40085A3C031D572B0130C0004030E7
:1006B00084000E22603040020319C0017F2B0030FD
:1006C0004002031D692B00304102031D692B0130DC
:1006D000C0002C1D752BC103FF304102031D722B7E
:1006E0009930C100413084001822AC1D7F2BC10A13
:1006F000413084000E22A03041020319C1019F2322
:10070000AC1E0800AB112B11AB100B308F00DC308E
:100710008E000230A200101008002C112F180800C3
:100720002E182C150800AC11AF180800AE18AC1527
:1007300008002C122F1908002E192C160800AC12D4
:10074000AF1A0800AE1AAC1608000230A900AB239D
:10075000A90BA72B0800A630A800A80BAD2B0800FA
:04400E00D420FF3F7C
:00000001FF
